{
  "contractName": "Credit",
  "abi": [
    {
      "inputs": [
        {
          "internalType": "uint256",
          "name": "_requestedAmount",
          "type": "uint256"
        },
        {
          "internalType": "uint256",
          "name": "_requestedRepayments",
          "type": "uint256"
        },
        {
          "internalType": "uint256",
          "name": "_interest",
          "type": "uint256"
        },
        {
          "internalType": "bytes32",
          "name": "_description",
          "type": "bytes32"
        }
      ],
      "payable": false,
      "stateMutability": "nonpayable",
      "type": "constructor"
    },
    {
      "anonymous": false,
      "inputs": [
        {
          "indexed": true,
          "internalType": "address",
          "name": "_address",
          "type": "address"
        },
        {
          "indexed": true,
          "internalType": "uint256",
          "name": "_amount",
          "type": "uint256"
        },
        {
          "indexed": true,
          "internalType": "uint256",
          "name": "timestamp",
          "type": "uint256"
        }
      ],
      "name": "LogBorrowerChangeReturned",
      "type": "event"
    },
    {
      "anonymous": false,
      "inputs": [
        {
          "indexed": true,
          "internalType": "address",
          "name": "_address",
          "type": "address"
        },
        {
          "indexed": true,
          "internalType": "bool",
          "name": "fraudStatus",
          "type": "bool"
        },
        {
          "indexed": true,
          "internalType": "uint256",
          "name": "timestamp",
          "type": "uint256"
        }
      ],
      "name": "LogBorrowerIsFraud",
      "type": "event"
    },
    {
      "anonymous": false,
      "inputs": [
        {
          "indexed": true,
          "internalType": "address",
          "name": "_address",
          "type": "address"
        },
        {
          "indexed": true,
          "internalType": "uint256",
          "name": "timestamp",
          "type": "uint256"
        }
      ],
      "name": "LogBorrowerRepaymentFinished",
      "type": "event"
    },
    {
      "anonymous": false,
      "inputs": [
        {
          "indexed": true,
          "internalType": "address",
          "name": "_address",
          "type": "address"
        },
        {
          "indexed": true,
          "internalType": "uint256",
          "name": "_amount",
          "type": "uint256"
        },
        {
          "indexed": true,
          "internalType": "uint256",
          "name": "timestamp",
          "type": "uint256"
        }
      ],
      "name": "LogBorrowerRepaymentInstallment",
      "type": "event"
    },
    {
      "anonymous": false,
      "inputs": [
        {
          "indexed": true,
          "internalType": "address",
          "name": "_address",
          "type": "address"
        },
        {
          "indexed": true,
          "internalType": "uint256",
          "name": "_amount",
          "type": "uint256"
        },
        {
          "indexed": true,
          "internalType": "uint256",
          "name": "timestamp",
          "type": "uint256"
        }
      ],
      "name": "LogBorrowerWithdrawal",
      "type": "event"
    },
    {
      "anonymous": false,
      "inputs": [
        {
          "indexed": true,
          "internalType": "address",
          "name": "_address",
          "type": "address"
        },
        {
          "indexed": true,
          "internalType": "uint256",
          "name": "timestamp",
          "type": "uint256"
        }
      ],
      "name": "LogCreditInitialized",
      "type": "event"
    },
    {
      "anonymous": false,
      "inputs": [
        {
          "indexed": true,
          "internalType": "bool",
          "name": "active",
          "type": "bool"
        },
        {
          "indexed": true,
          "internalType": "uint256",
          "name": "timestamp",
          "type": "uint256"
        }
      ],
      "name": "LogCreditStateActiveChanged",
      "type": "event"
    },
    {
      "anonymous": false,
      "inputs": [
        {
          "indexed": true,
          "internalType": "enum Credit.State",
          "name": "state",
          "type": "uint8"
        },
        {
          "indexed": true,
          "internalType": "uint256",
          "name": "timestamp",
          "type": "uint256"
        }
      ],
      "name": "LogCreditStateChanged",
      "type": "event"
    },
    {
      "anonymous": false,
      "inputs": [
        {
          "indexed": true,
          "internalType": "address",
          "name": "_address",
          "type": "address"
        },
        {
          "indexed": true,
          "internalType": "uint256",
          "name": "_amount",
          "type": "uint256"
        },
        {
          "indexed": true,
          "internalType": "uint256",
          "name": "timestamp",
          "type": "uint256"
        }
      ],
      "name": "LogLenderChangeReturned",
      "type": "event"
    },
    {
      "anonymous": false,
      "inputs": [
        {
          "indexed": true,
          "internalType": "address",
          "name": "_address",
          "type": "address"
        },
        {
          "indexed": true,
          "internalType": "uint256",
          "name": "_amount",
          "type": "uint256"
        },
        {
          "indexed": true,
          "internalType": "uint256",
          "name": "timestamp",
          "type": "uint256"
        }
      ],
      "name": "LogLenderInvestment",
      "type": "event"
    },
    {
      "anonymous": false,
      "inputs": [
        {
          "indexed": true,
          "internalType": "address",
          "name": "_address",
          "type": "address"
        },
        {
          "indexed": true,
          "internalType": "uint256",
          "name": "_amount",
          "type": "uint256"
        },
        {
          "indexed": true,
          "internalType": "uint256",
          "name": "timestamp",
          "type": "uint256"
        }
      ],
      "name": "LogLenderRefunded",
      "type": "event"
    },
    {
      "anonymous": false,
      "inputs": [
        {
          "indexed": true,
          "internalType": "address",
          "name": "_address",
          "type": "address"
        },
        {
          "indexed": true,
          "internalType": "uint256",
          "name": "timestamp",
          "type": "uint256"
        }
      ],
      "name": "LogLenderVoteForFraud",
      "type": "event"
    },
    {
      "anonymous": false,
      "inputs": [
        {
          "indexed": true,
          "internalType": "address",
          "name": "_address",
          "type": "address"
        },
        {
          "indexed": true,
          "internalType": "uint256",
          "name": "timestamp",
          "type": "uint256"
        }
      ],
      "name": "LogLenderVoteForRevoking",
      "type": "event"
    },
    {
      "anonymous": false,
      "inputs": [
        {
          "indexed": true,
          "internalType": "address",
          "name": "_address",
          "type": "address"
        },
        {
          "indexed": true,
          "internalType": "uint256",
          "name": "_amount",
          "type": "uint256"
        },
        {
          "indexed": true,
          "internalType": "uint256",
          "name": "timestamp",
          "type": "uint256"
        }
      ],
      "name": "LogLenderWithdrawal",
      "type": "event"
    },
    {
      "anonymous": false,
      "inputs": [
        {
          "indexed": true,
          "internalType": "address",
          "name": "_currentOwner",
          "type": "address"
        },
        {
          "indexed": true,
          "internalType": "address",
          "name": "_newOwner",
          "type": "address"
        }
      ],
      "name": "LogOwnershipTransfered",
      "type": "event"
    },
    {
      "constant": false,
      "inputs": [],
      "name": "destroy",
      "outputs": [],
      "payable": false,
      "stateMutability": "nonpayable",
      "type": "function"
    },
    {
      "constant": false,
      "inputs": [
        {
          "internalType": "address payable",
          "name": "_recipient",
          "type": "address"
        }
      ],
      "name": "destroyAndSend",
      "outputs": [],
      "payable": false,
      "stateMutability": "nonpayable",
      "type": "function"
    },
    {
      "constant": true,
      "inputs": [
        {
          "internalType": "address",
          "name": "",
          "type": "address"
        }
      ],
      "name": "lenders",
      "outputs": [
        {
          "internalType": "bool",
          "name": "",
          "type": "bool"
        }
      ],
      "payable": false,
      "stateMutability": "view",
      "type": "function"
    },
    {
      "constant": true,
      "inputs": [],
      "name": "getBalance",
      "outputs": [
        {
          "internalType": "uint256",
          "name": "",
          "type": "uint256"
        }
      ],
      "payable": false,
      "stateMutability": "view",
      "type": "function"
    },
    {
      "constant": false,
      "inputs": [],
      "name": "invest",
      "outputs": [],
      "payable": true,
      "stateMutability": "payable",
      "type": "function"
    },
    {
      "constant": false,
      "inputs": [],
      "name": "repay",
      "outputs": [],
      "payable": true,
      "stateMutability": "payable",
      "type": "function"
    },
    {
      "constant": false,
      "inputs": [],
      "name": "withdraw",
      "outputs": [],
      "payable": false,
      "stateMutability": "nonpayable",
      "type": "function"
    },
    {
      "constant": false,
      "inputs": [],
      "name": "requestInterest",
      "outputs": [],
      "payable": false,
      "stateMutability": "nonpayable",
      "type": "function"
    },
    {
      "constant": true,
      "inputs": [],
      "name": "getCreditInfo",
      "outputs": [
        {
          "internalType": "address",
          "name": "",
          "type": "address"
        },
        {
          "internalType": "bytes32",
          "name": "",
          "type": "bytes32"
        },
        {
          "internalType": "uint256",
          "name": "",
          "type": "uint256"
        },
        {
          "internalType": "uint256",
          "name": "",
          "type": "uint256"
        },
        {
          "internalType": "uint256",
          "name": "",
          "type": "uint256"
        },
        {
          "internalType": "uint256",
          "name": "",
          "type": "uint256"
        },
        {
          "internalType": "uint256",
          "name": "",
          "type": "uint256"
        },
        {
          "internalType": "uint256",
          "name": "",
          "type": "uint256"
        },
        {
          "internalType": "enum Credit.State",
          "name": "",
          "type": "uint8"
        },
        {
          "internalType": "bool",
          "name": "",
          "type": "bool"
        },
        {
          "internalType": "uint256",
          "name": "",
          "type": "uint256"
        }
      ],
      "payable": false,
      "stateMutability": "view",
      "type": "function"
    },
    {
      "constant": false,
      "inputs": [],
      "name": "revokeVote",
      "outputs": [],
      "payable": false,
      "stateMutability": "nonpayable",
      "type": "function"
    },
    {
      "constant": false,
      "inputs": [],
      "name": "refund",
      "outputs": [],
      "payable": false,
      "stateMutability": "nonpayable",
      "type": "function"
    },
    {
      "constant": false,
      "inputs": [
        {
          "internalType": "enum Credit.State",
          "name": "_state",
          "type": "uint8"
        }
      ],
      "name": "changeState",
      "outputs": [
        {
          "internalType": "uint256",
          "name": "",
          "type": "uint256"
        }
      ],
      "payable": false,
      "stateMutability": "nonpayable",
      "type": "function"
    },
    {
      "constant": false,
      "inputs": [],
      "name": "toggleActive",
      "outputs": [
        {
          "internalType": "bool",
          "name": "",
          "type": "bool"
        }
      ],
      "payable": false,
      "stateMutability": "nonpayable",
      "type": "function"
    }
  ],
  "bytecode": "0x60806040526001600c60006101000a81548160ff0219169083151502179055506000600f5560006010556001420160125560006013553480156200004257600080fd5b50604051620018c8380380620018c8833981810160405260808110156200006857600080fd5b8101908080519060200190929190805190602001909291908051906020019092919080519060200190929190505050336000806101000a81548173ffffffffffffffffffffffffffffffffffffffff021916908373ffffffffffffffffffffffffffffffffffffffff16021790555032600160006101000a81548173ffffffffffffffffffffffffffffffffffffffff021916908373ffffffffffffffffffffffffffffffffffffffff1602179055508160058190555083600281905550826006819055508260078190555062000152600554600254620001fa60201b620015af1790919060201c565b600381905550620001766006546003546200021760201b620016391790919060201c565b60088190555080600b819055504260098190555042600160009054906101000a900473ffffffffffffffffffffffffffffffffffffffff1673ffffffffffffffffffffffffffffffffffffffff167ff9f75c99c0e3522cd19ffc66fd6c94989a3f0821d37d5c5bb176aab904c6335d60405160405180910390a35050505062000231565b6000808284019050838110156200020d57fe5b8091505092915050565b6000808284816200022457fe5b0490508091505092915050565b61168780620002416000396000f3fe6080604052600436106100c25760003560e01c806343c14b221161007f578063e8b5e51f11610059578063e8b5e51f14610242578063efd475ab1461024c578063f06817cf14610263578063f5074f4114610312576100c2565b806343c14b22146101fd578063590e1ae31461021457806383197ef01461022b576100c2565b806312065fe0146100c7578063268f1153146100f257806328fd10d71461014457806329c68dc1146101ad5780633ccfd60b146101dc578063402d8883146101f3575b600080fd5b3480156100d357600080fd5b506100dc610363565b6040518082815260200191505060405180910390f35b3480156100fe57600080fd5b5061012e6004803603602081101561011557600080fd5b81019080803560ff16906020019092919050505061036b565b6040518082815260200191505060405180910390f35b34801561015057600080fd5b506101936004803603602081101561016757600080fd5b81019080803573ffffffffffffffffffffffffffffffffffffffff169060200190929190505050610436565b604051808215151515815260200191505060405180910390f35b3480156101b957600080fd5b506101c2610456565b604051808215151515815260200191505060405180910390f35b3480156101e857600080fd5b506101f161052f565b005b6101fb610706565b005b34801561020957600080fd5b506102126109f5565b005b34801561022057600080fd5b50610229610bcd565b005b34801561023757600080fd5b50610240610ea1565b005b61024a610f34565b005b34801561025857600080fd5b50610261611220565b005b34801561026f57600080fd5b50610278611496565b604051808c73ffffffffffffffffffffffffffffffffffffffff1673ffffffffffffffffffffffffffffffffffffffff1681526020018b81526020018a81526020018981526020018881526020018781526020018681526020018581526020018460058111156102e457fe5b60ff168152602001831515151581526020018281526020019b50505050505050505050505060405180910390f35b34801561031e57600080fd5b506103616004803603602081101561033557600080fd5b81019080803573ffffffffffffffffffffffffffffffffffffffff169060200190929190505050611526565b005b600047905090565b60008060009054906101000a900473ffffffffffffffffffffffffffffffffffffffff1673ffffffffffffffffffffffffffffffffffffffff163373ffffffffffffffffffffffffffffffffffffffff16146103c657600080fd5b81600c60016101000a81548160ff021916908360058111156103e457fe5b021790555042600c60019054906101000a900460ff16600581111561040557fe5b7faaae373901e745122c2e0925ad006227969c6cd190b7d5ea2fb7fdbd1d955b3560405160405180910390a3919050565b600d6020528060005260406000206000915054906101000a900460ff1681565b60008060009054906101000a900473ffffffffffffffffffffffffffffffffffffffff1673ffffffffffffffffffffffffffffffffffffffff163373ffffffffffffffffffffffffffffffffffffffff16146104b157600080fd5b600c60009054906101000a900460ff1615600c60006101000a81548160ff02191690831515021790555042600c60009054906101000a900460ff1615157f160914ea27c60aa29a5f3a69d74e6069869de36e38939de1e0a66b921d8623d260405160405180910390a3600c60009054906101000a900460ff16905090565b60011515600c60009054906101000a900460ff1615151461054f57600080fd5b600160009054906101000a900473ffffffffffffffffffffffffffffffffffffffff1673ffffffffffffffffffffffffffffffffffffffff163373ffffffffffffffffffffffffffffffffffffffff16146105a957600080fd5b6002544710156105b857600080fd5b6005808111156105c457fe5b600c60019054906101000a900460ff1660058111156105df57fe5b14156105ea57600080fd5b6001600c60016101000a81548160ff0219169083600581111561060957fe5b021790555042600c60019054906101000a900460ff16600581111561062a57fe5b7faaae373901e745122c2e0925ad006227969c6cd190b7d5ea2fb7fdbd1d955b3560405160405180910390a342473373ffffffffffffffffffffffffffffffffffffffff167f20734f14d107b526674905e470e35d0a474f9fb996a7bdb034c839c8894524e660405160405180910390a4600160009054906101000a900473ffffffffffffffffffffffffffffffffffffffff1673ffffffffffffffffffffffffffffffffffffffff166108fc479081150290604051600060405180830381858888f19350505050158015610703573d6000803e3d6000fd5b50565b600160009054906101000a900473ffffffffffffffffffffffffffffffffffffffff1673ffffffffffffffffffffffffffffffffffffffff163373ffffffffffffffffffffffffffffffffffffffff161461076057600080fd5b6001600581111561076d57fe5b600c60019054906101000a900460ff16600581111561078857fe5b1461079257600080fd5b6000600754116107a157600080fd5b6008543410156107b057600080fd5b600354600454106107bd57fe5b6007600081548092919060019003919050555042600a8190555060008090506008543411156108b1576107fb6008543461159890919063ffffffff16565b9050610810813461159890919063ffffffff16565b6008541461081a57fe5b3481111561082457fe5b3373ffffffffffffffffffffffffffffffffffffffff166108fc829081150290604051600060405180830381858888f1935050505015801561086a573d6000803e3d6000fd5b5042813373ffffffffffffffffffffffffffffffffffffffff167f5c9874487a2258c6bd6dc39a2cfcf7ea944b50b79d9a7152668779687b2ebd8d60405160405180910390a45b426108c5823461159890919063ffffffff16565b3373ffffffffffffffffffffffffffffffffffffffff167f350a09487d622378c6efbda255f996387696319f803a2e53eee64f7aa70be85a60405160405180910390a461092f61091e823461159890919063ffffffff16565b6004546115af90919063ffffffff16565b60048190555060035460045414156109f257423373ffffffffffffffffffffffffffffffffffffffff167f25630de45a38a90cbca3a2eb35a8197e51b56d6d912581711e5e3773fe77cabc60405160405180910390a36002600c60016101000a81548160ff021916908360058111156109a457fe5b021790555042600c60019054906101000a900460ff1660058111156109c557fe5b7faaae373901e745122c2e0925ad006227969c6cd190b7d5ea2fb7fdbd1d955b3560405160405180910390a35b50565b60011515600c60009054906101000a900460ff16151514610a1557600080fd5b601254421015610a2457600080fd5b60006005811115610a3157fe5b600c60019054906101000a900460ff166005811115610a4c57fe5b14610a5657600080fd5b60011515600d60003373ffffffffffffffffffffffffffffffffffffffff1673ffffffffffffffffffffffffffffffffffffffff16815260200190815260200160002060009054906101000a900460ff16151514610ab357600080fd5b60001515601160003373ffffffffffffffffffffffffffffffffffffffff1673ffffffffffffffffffffffffffffffffffffffff16815260200190815260200160002060009054906101000a900460ff16151514610b1057600080fd5b60106000815480929190600101919050555060011515601160003373ffffffffffffffffffffffffffffffffffffffff1673ffffffffffffffffffffffffffffffffffffffff16815260200190815260200160002060009054906101000a90505050423373ffffffffffffffffffffffffffffffffffffffff167fd7173ce7e4ce6f6d075259ac1a467ab8290db175a2cee8587a663c006b97e12960405160405180910390a3601054600f541415610bcb57610bca6115cb565b5b565b60011515600c60009054906101000a900460ff16151514610bed57600080fd5b60011515600d60003373ffffffffffffffffffffffffffffffffffffffff1673ffffffffffffffffffffffffffffffffffffffff16815260200190815260200160002060009054906101000a900460ff16151514610c4a57600080fd5b60046005811115610c5757fe5b600c60019054906101000a900460ff166005811115610c7257fe5b14610c7c57600080fd5b600e60003373ffffffffffffffffffffffffffffffffffffffff1673ffffffffffffffffffffffffffffffffffffffff16815260200190815260200160002054471015610cc557fe5b3373ffffffffffffffffffffffffffffffffffffffff166108fc600e60003373ffffffffffffffffffffffffffffffffffffffff1673ffffffffffffffffffffffffffffffffffffffff168152602001908152602001600020549081150290604051600060405180830381858888f19350505050158015610d4a573d6000803e3d6000fd5b5042600e60003373ffffffffffffffffffffffffffffffffffffffff1673ffffffffffffffffffffffffffffffffffffffff168152602001908152602001600020543373ffffffffffffffffffffffffffffffffffffffff167f71e252e33f19f0223f47f27d00910548d26488b9b55cb5b410b75e273152f8d660405160405180910390a46000471415610e9f576000600c60006101000a81548160ff02191690831515021790555042600c60009054906101000a900460ff1615157f160914ea27c60aa29a5f3a69d74e6069869de36e38939de1e0a66b921d8623d260405160405180910390a36003600c60016101000a81548160ff02191690836005811115610e5157fe5b021790555042600c60019054906101000a900460ff166005811115610e7257fe5b7faaae373901e745122c2e0925ad006227969c6cd190b7d5ea2fb7fdbd1d955b3560405160405180910390a35b565b6000809054906101000a900473ffffffffffffffffffffffffffffffffffffffff1673ffffffffffffffffffffffffffffffffffffffff163373ffffffffffffffffffffffffffffffffffffffff1614610efa57600080fd5b6000809054906101000a900473ffffffffffffffffffffffffffffffffffffffff1673ffffffffffffffffffffffffffffffffffffffff16ff5b60006005811115610f4157fe5b600c60019054906101000a900460ff166005811115610f5c57fe5b14610f6657600080fd5b600080905060025447106110b557610f896002544761159890919063ffffffff16565b9050610f9e814761159890919063ffffffff16565b60025414610fa857fe5b34811115610fb257fe5b6000811115611048573373ffffffffffffffffffffffffffffffffffffffff166108fc829081150290604051600060405180830381858888f19350505050158015611001573d6000803e3d6000fd5b5042813373ffffffffffffffffffffffffffffffffffffffff167f566803f6e271b911c84f87631bcd310d6a6510bf8882577a96fc76975703e43160405160405180910390a45b6001600c60016101000a81548160ff0219169083600581111561106757fe5b021790555042600c60019054906101000a900460ff16600581111561108857fe5b7faaae373901e745122c2e0925ad006227969c6cd190b7d5ea2fb7fdbd1d955b3560405160405180910390a35b6001600d60003373ffffffffffffffffffffffffffffffffffffffff1673ffffffffffffffffffffffffffffffffffffffff16815260200190815260200160002060006101000a81548160ff021916908315150217905550600f60008154809291906001019190505550611183611135823461159890919063ffffffff16565b600e60003373ffffffffffffffffffffffffffffffffffffffff1673ffffffffffffffffffffffffffffffffffffffff168152602001908152602001600020546115af90919063ffffffff16565b600e60003373ffffffffffffffffffffffffffffffffffffffff1673ffffffffffffffffffffffffffffffffffffffff16815260200190815260200160002081905550426111da823461159890919063ffffffff16565b3373ffffffffffffffffffffffffffffffffffffffff167f1b0969ce7f5b05c5e0969329a05cdbd7e2e2f6cee33ba26fd6e6bbcff82312cd60405160405180910390a450565b60011515600c60009054906101000a900460ff1615151461124057600080fd5b60011515600d60003373ffffffffffffffffffffffffffffffffffffffff1673ffffffffffffffffffffffffffffffffffffffff16815260200190815260200160002060009054906101000a900460ff1615151461129d57600080fd5b600260058111156112aa57fe5b600c60019054906101000a900460ff1660058111156112c557fe5b146112cf57600080fd5b6000600e60003373ffffffffffffffffffffffffffffffffffffffff1673ffffffffffffffffffffffffffffffffffffffff168152602001908152602001600020541161131b57600080fd5b6000600f546003548161132a57fe5b0490508047101561133757fe5b3373ffffffffffffffffffffffffffffffffffffffff166108fc829081150290604051600060405180830381858888f1935050505015801561137d573d6000803e3d6000fd5b5042813373ffffffffffffffffffffffffffffffffffffffff167f052f6685df2f773f854b17db1d82e2352e222010daaf8175761f02ef8782c40360405160405180910390a46000471415611493576000600c60006101000a81548160ff02191690831515021790555042600c60009054906101000a900460ff1615157f160914ea27c60aa29a5f3a69d74e6069869de36e38939de1e0a66b921d8623d260405160405180910390a36003600c60016101000a81548160ff0219169083600581111561144557fe5b021790555042600c60019054906101000a900460ff16600581111561146657fe5b7faaae373901e745122c2e0925ad006227969c6cd190b7d5ea2fb7fdbd1d955b3560405160405180910390a35b50565b6000806000806000806000806000806000600160009054906101000a900473ffffffffffffffffffffffffffffffffffffffff16600b54600254600654600854600754600554600354600c60019054906101000a900460ff16600c60009054906101000a900460ff16478a9a509a509a509a509a509a509a509a509a509a509a509a50909192939495969798999a565b6000809054906101000a900473ffffffffffffffffffffffffffffffffffffffff1673ffffffffffffffffffffffffffffffffffffffff163373ffffffffffffffffffffffffffffffffffffffff161461157f57600080fd5b8073ffffffffffffffffffffffffffffffffffffffff16ff5b6000828211156115a457fe5b818303905092915050565b6000808284019050838110156115c157fe5b8091505092915050565b6004600c60016101000a81548160ff021916908360058111156115ea57fe5b021790555042600c60019054906101000a900460ff16600581111561160b57fe5b7faaae373901e745122c2e0925ad006227969c6cd190b7d5ea2fb7fdbd1d955b3560405160405180910390a3565b60008082848161164557fe5b049050809150509291505056fea265627a7a7231582040819c3a08df95feace020f2eaeae2385fc6a7b610b013ee704078385c2a10e564736f6c63430005100032",
  "source": "pragma solidity ^0.5.16;\r\n\r\nimport \"./common/SafeMath.sol\";\r\nimport \"./common/Destructible.sol\";\r\n\r\n/** @title Credit contract.\r\n * Inherits the Ownable and Destructible contracts.\r\n */\r\ncontract Credit is Destructible {\r\n    /** @dev Usings */\r\n    // Using SafeMath for our calculations with uints.\r\n    using SafeMath for uint;\r\n\r\n    /** @dev State variables */\r\n    // Borrower is the person who generated the credit contract.\r\n    address payable borrower;\r\n\r\n    // Amount requested to be funded (in wei).\r\n    uint requestedAmount;\r\n\r\n    // Amount that will be returned by the borrower (including the interest).\r\n    uint returnAmount;\r\n\r\n    // Currently repaid amount.\r\n    uint repaidAmount;\r\n\r\n    // Credit interest.\r\n    uint interest;\r\n\r\n    // Requested number of repayment installments.\r\n    uint requestedRepayments;\r\n\r\n    // Remaining repayment installments.\r\n    uint remainingRepayments;\r\n\r\n    // The value of the repayment installment.\r\n    uint repaymentInstallment;\r\n\r\n    // The timestamp of credit creation.\r\n    uint requestedDate;\r\n\r\n    // The timestamp of last repayment date.\r\n    uint lastRepaymentDate;\r\n\r\n    // Description of the credit.\r\n    bytes32 description;\r\n\r\n    // Active state of the credit.\r\n    bool active = true;\r\n\r\n    /** Stages that every credit contract gets trough.\r\n     *   investment - During this state only investments are allowed.\r\n     *   repayment - During this stage only repayments are allowed.\r\n     *   interestReturns - This stage gives investors opportunity to request their returns.\r\n     *   expired - This is the stage when the contract is finished its purpose.\r\n     *   fraud - The borrower was marked as fraud.\r\n     */\r\n    enum State {\r\n        investment,\r\n        repayment,\r\n        interestReturns,\r\n        expired,\r\n        revoked,\r\n        fraud\r\n    }\r\n    State state;\r\n\r\n    // Storing the lenders for this credit.\r\n    mapping(address => bool) public lenders;\r\n\r\n    // Storing the invested amount by each lender.\r\n    mapping(address => uint) lendersInvestedAmount;\r\n\r\n    // Store the lenders count, later needed for revoke vote.\r\n    uint lendersCount = 0;\r\n\r\n    // Revoke votes count.\r\n    uint revokeVotes = 0;\r\n\r\n    // Revoke voters.\r\n    mapping(address => bool) revokeVoters;\r\n\r\n    // Time needed for a revoke voting to start.\r\n    // To be changed in production accordingly.\r\n    uint revokeTimeNeeded = block.timestamp + 1 seconds;\r\n\r\n    // Revoke votes count.\r\n    uint fraudVotes = 0;\r\n\r\n    // Revoke voters.\r\n    mapping(address => bool) fraudVoters;\r\n\r\n    /** @dev Events\r\n     *\r\n     */\r\n    event LogCreditInitialized(\r\n        address indexed _address,\r\n        uint indexed timestamp\r\n    );\r\n    event LogCreditStateChanged(State indexed state, uint indexed timestamp);\r\n    event LogCreditStateActiveChanged(\r\n        bool indexed active,\r\n        uint indexed timestamp\r\n    );\r\n\r\n    event LogBorrowerWithdrawal(\r\n        address indexed _address,\r\n        uint indexed _amount,\r\n        uint indexed timestamp\r\n    );\r\n    event LogBorrowerRepaymentInstallment(\r\n        address indexed _address,\r\n        uint indexed _amount,\r\n        uint indexed timestamp\r\n    );\r\n    event LogBorrowerRepaymentFinished(\r\n        address indexed _address,\r\n        uint indexed timestamp\r\n    );\r\n    event LogBorrowerChangeReturned(\r\n        address indexed _address,\r\n        uint indexed _amount,\r\n        uint indexed timestamp\r\n    );\r\n    event LogBorrowerIsFraud(\r\n        address indexed _address,\r\n        bool indexed fraudStatus,\r\n        uint indexed timestamp\r\n    );\r\n\r\n    event LogLenderInvestment(\r\n        address indexed _address,\r\n        uint indexed _amount,\r\n        uint indexed timestamp\r\n    );\r\n    event LogLenderWithdrawal(\r\n        address indexed _address,\r\n        uint indexed _amount,\r\n        uint indexed timestamp\r\n    );\r\n    event LogLenderChangeReturned(\r\n        address indexed _address,\r\n        uint indexed _amount,\r\n        uint indexed timestamp\r\n    );\r\n    event LogLenderVoteForRevoking(\r\n        address indexed _address,\r\n        uint indexed timestamp\r\n    );\r\n    event LogLenderVoteForFraud(\r\n        address indexed _address,\r\n        uint indexed timestamp\r\n    );\r\n    event LogLenderRefunded(\r\n        address indexed _address,\r\n        uint indexed _amount,\r\n        uint indexed timestamp\r\n    );\r\n\r\n    /** @dev Modifiers\r\n     *\r\n     */\r\n    modifier isActive() {\r\n        require(active == true);\r\n        _;\r\n    }\r\n\r\n    modifier onlyBorrower() {\r\n        require(msg.sender == borrower);\r\n        _;\r\n    }\r\n\r\n    modifier onlyLender() {\r\n        require(lenders[msg.sender] == true);\r\n        _;\r\n    }\r\n\r\n    modifier canAskForInterest() {\r\n        require(state == State.interestReturns);\r\n        require(lendersInvestedAmount[msg.sender] > 0);\r\n        _;\r\n    }\r\n\r\n    modifier canInvest() {\r\n        require(state == State.investment);\r\n        _;\r\n    }\r\n\r\n    modifier canRepay() {\r\n        require(state == State.repayment);\r\n        _;\r\n    }\r\n\r\n    modifier canWithdraw() {\r\n        require(address(this).balance >= requestedAmount);\r\n        _;\r\n    }\r\n\r\n    modifier isNotFraud() {\r\n        require(state != State.fraud);\r\n        _;\r\n    }\r\n\r\n    modifier isRevokable() {\r\n        require(block.timestamp >= revokeTimeNeeded);\r\n        require(state == State.investment);\r\n        _;\r\n    }\r\n\r\n    modifier isRevoked() {\r\n        require(state == State.revoked);\r\n        _;\r\n    }\r\n\r\n    /** @dev Constructor.\r\n     * @param _requestedAmount Requested credit amount (in wei).\r\n     * @param _requestedRepayments Requested number of repayments.\r\n     * @param _description Credit description.\r\n     */\r\n    constructor(\r\n        uint _requestedAmount,\r\n        uint _requestedRepayments,\r\n        uint _interest,\r\n        bytes32 _description\r\n    ) public {\r\n        /** Set the borrower of the contract to the tx.origin\r\n         * We are using tx.origin, because the contract is going to be published\r\n         * by the main contract and msg.sender will break our logic.\r\n         */\r\n        borrower = tx.origin;\r\n\r\n        // Set the interest for the credit.\r\n        interest = _interest;\r\n\r\n        // Set the requested amount.\r\n        requestedAmount = _requestedAmount;\r\n\r\n        // Set the requested repayments.\r\n        requestedRepayments = _requestedRepayments;\r\n\r\n        /** Set the remaining repayments.\r\n         * Initially this is equal to the requested repayments.\r\n         */\r\n        remainingRepayments = _requestedRepayments;\r\n\r\n        /** Calculate the amount to be returned by the borrower.\r\n         * At this point this is the addition of the requested amount and the interest.\r\n         */\r\n        returnAmount = requestedAmount.add(interest);\r\n\r\n        /** Calculating the repayment installment.\r\n         * We divide the amount to be returned by the requested repayments count to get it.\r\n         */\r\n        repaymentInstallment = returnAmount.div(requestedRepayments);\r\n\r\n        // Set the credit description.\r\n        description = _description;\r\n\r\n        // Set the initialization date.\r\n        requestedDate = block.timestamp;\r\n\r\n        // Log credit initialization.\r\n        emit LogCreditInitialized(borrower, block.timestamp);\r\n    }\r\n\r\n    /** @dev Get current balance.\r\n     * @return this.balance.\r\n     */\r\n    function getBalance() public view returns (uint256) {\r\n        return address(this).balance;\r\n    }\r\n\r\n    /** @dev Invest function.\r\n     * Provides functionality for person to invest in someone's credit,\r\n     * incentivised by the return of interest.\r\n     */\r\n    function invest() public payable canInvest {\r\n        // Initialize an memory variable for the extra money that may have been sent.\r\n        uint extraMoney = 0;\r\n\r\n        // Check if contract balance is reached the requested amount.\r\n        if (address(this).balance >= requestedAmount) {\r\n            // Calculate the extra money that may have been sent.\r\n            extraMoney = address(this).balance.sub(requestedAmount);\r\n\r\n            // Assert the calculations\r\n            assert(requestedAmount == address(this).balance.sub(extraMoney));\r\n\r\n            // Assert for possible underflow / overflow\r\n            assert(extraMoney <= msg.value);\r\n\r\n            // Check if extra money is greater than 0 wei.\r\n            if (extraMoney > 0) {\r\n                // Return the extra money to the sender.\r\n                msg.sender.transfer(extraMoney);\r\n\r\n                // Log change returned.\r\n                emit LogLenderChangeReturned(\r\n                    msg.sender,\r\n                    extraMoney,\r\n                    block.timestamp\r\n                );\r\n            }\r\n\r\n            // Set the contract state to repayment.\r\n            state = State.repayment;\r\n\r\n            // Log state change.\r\n            emit LogCreditStateChanged(state, block.timestamp);\r\n        }\r\n\r\n        /** Add the investor to the lenders mapping.\r\n         * So that we know he invested in this contract.\r\n         */\r\n        lenders[msg.sender] = true;\r\n\r\n        // Increment the lenders count.\r\n        lendersCount++;\r\n\r\n        // Add the amount invested to the amount mapping.\r\n        lendersInvestedAmount[msg.sender] = lendersInvestedAmount[msg.sender]\r\n            .add(msg.value.sub(extraMoney));\r\n\r\n        // Log lender invested amount.\r\n        emit LogLenderInvestment(\r\n            msg.sender,\r\n            msg.value.sub(extraMoney),\r\n            block.timestamp\r\n        );\r\n    }\r\n\r\n    /** @dev Repayment function.\r\n     * Allows borrower to make repayment installments.\r\n     */\r\n    function repay() public payable onlyBorrower canRepay {\r\n        // The remaining repayments should be greater than 0 to continue.\r\n        require(remainingRepayments > 0);\r\n\r\n        // The value sent should be greater than the repayment installment.\r\n        require(msg.value >= repaymentInstallment);\r\n\r\n        /** Assert that the amount to be returned is greater\r\n         * than the sum of repayments made until now.\r\n         * Otherwise the credit is already repaid.\r\n         */\r\n        assert(repaidAmount < returnAmount);\r\n\r\n        // Decrement the remaining repayments.\r\n        remainingRepayments--;\r\n\r\n        // Update last repayment date.\r\n        lastRepaymentDate = block.timestamp;\r\n\r\n        // Initialize an memory variable for the extra money that may have been sent.\r\n        uint extraMoney = 0;\r\n\r\n        /** Check if the value (in wei) that is being sent is greather than the repayment installment.\r\n         * In this case we should return the change to the msg.sender.\r\n         */\r\n        if (msg.value > repaymentInstallment) {\r\n            // Calculate the extra money being sent in the transaction.\r\n            extraMoney = msg.value.sub(repaymentInstallment);\r\n\r\n            // Assert the calculations.\r\n            assert(repaymentInstallment == msg.value.sub(extraMoney));\r\n\r\n            // Assert for underflow.\r\n            assert(extraMoney <= msg.value);\r\n\r\n            // Return the change/extra money to the msg.sender.\r\n            msg.sender.transfer(extraMoney);\r\n\r\n            // Log the return of the extra money.\r\n            emit LogBorrowerChangeReturned(\r\n                msg.sender,\r\n                extraMoney,\r\n                block.timestamp\r\n            );\r\n        }\r\n\r\n        // Log borrower installment received.\r\n        emit LogBorrowerRepaymentInstallment(\r\n            msg.sender,\r\n            msg.value.sub(extraMoney),\r\n            block.timestamp\r\n        );\r\n\r\n        // Add the repayment installment amount to the total repaid amount.\r\n        repaidAmount = repaidAmount.add(msg.value.sub(extraMoney));\r\n\r\n        // Check the repaid amount reached the amount to be returned.\r\n        if (repaidAmount == returnAmount) {\r\n            // Log credit repaid.\r\n            emit LogBorrowerRepaymentFinished(msg.sender, block.timestamp);\r\n\r\n            // Set the credit state to \"returning interests\".\r\n            state = State.interestReturns;\r\n\r\n            // Log state change.\r\n            emit LogCreditStateChanged(state, block.timestamp);\r\n        }\r\n    }\r\n\r\n    /** @dev Withdraw function.\r\n     * It can only be executed while contract is in active state.\r\n     * It is only accessible to the borrower.\r\n     * It is only accessible if the needed amount is gathered in the contract.\r\n     * It can only be executed once.\r\n     * Transfers the gathered amount to the borrower.\r\n     */\r\n    function withdraw() public isActive onlyBorrower canWithdraw isNotFraud {\r\n        // Set the state to repayment so we can avoid reentrancy.\r\n        state = State.repayment;\r\n\r\n        // Log state change.\r\n        emit LogCreditStateChanged(state, block.timestamp);\r\n\r\n        // Log borrower withdrawal.\r\n        emit LogBorrowerWithdrawal(\r\n            msg.sender,\r\n            address(this).balance,\r\n            block.timestamp\r\n        );\r\n\r\n        // Transfer the gathered amount to the credit borrower.\r\n        borrower.transfer(address(this).balance);\r\n    }\r\n\r\n    /** @dev Request interest function.\r\n     * It can only be executed while contract is in active state.\r\n     * It is only accessible to lenders.\r\n     * It is only accessible if lender funded 1 or more wei.\r\n     * It can only be executed once.\r\n     * Transfers the lended amount + interest to the lender.\r\n     */\r\n    function requestInterest() public isActive onlyLender canAskForInterest {\r\n        // Calculate the amount to be returned to lender.\r\n        //        uint lenderReturnAmount = lendersInvestedAmount[msg.sender].mul(returnAmount.div(lendersCount).div(lendersInvestedAmount[msg.sender]));\r\n        uint lenderReturnAmount = returnAmount / lendersCount;\r\n\r\n        // Assert the contract has enough balance to pay the lender.\r\n        assert(address(this).balance >= lenderReturnAmount);\r\n\r\n        // Transfer the return amount with interest to the lender.\r\n        msg.sender.transfer(lenderReturnAmount);\r\n\r\n        // Log the transfer to lender.\r\n        emit LogLenderWithdrawal(\r\n            msg.sender,\r\n            lenderReturnAmount,\r\n            block.timestamp\r\n        );\r\n\r\n        // Check if the contract balance is drawned.\r\n        if (address(this).balance == 0) {\r\n            // Set the active state to false.\r\n            active = false;\r\n\r\n            // Log active state change.\r\n            emit LogCreditStateActiveChanged(active, block.timestamp);\r\n\r\n            // Set the contract stage to expired e.g. its lifespan is over.\r\n            state = State.expired;\r\n\r\n            // Log state change.\r\n            emit LogCreditStateChanged(state, block.timestamp);\r\n        }\r\n    }\r\n\r\n    /** @dev Function to get the whole credit information.\r\n     * @return borrower\r\n     * @return description\r\n     * @return requestedAmount\r\n     * @return requestedRepayments\r\n     * @return remainingRepayments\r\n     * @return interest\r\n     * @return returnAmount\r\n     * @return state\r\n     * @return active\r\n     * @return this.balance\r\n     */\r\n    function getCreditInfo()\r\n        public\r\n        view\r\n        returns (\r\n            address,\r\n            bytes32,\r\n            uint,\r\n            uint,\r\n            uint,\r\n            uint,\r\n            uint,\r\n            uint,\r\n            State,\r\n            bool,\r\n            uint\r\n        )\r\n    {\r\n        return (\r\n            borrower,\r\n            description,\r\n            requestedAmount,\r\n            requestedRepayments,\r\n            repaymentInstallment,\r\n            remainingRepayments,\r\n            interest,\r\n            returnAmount,\r\n            state,\r\n            active,\r\n            address(this).balance\r\n        );\r\n    }\r\n\r\n    /** @dev Function for revoking the credit.\r\n     */\r\n    function revokeVote() public isActive isRevokable onlyLender {\r\n        // Require only one vote per lender.\r\n        require(revokeVoters[msg.sender] == false);\r\n\r\n        // Increment the revokeVotes.\r\n        revokeVotes++;\r\n\r\n        // Note the lender has voted.\r\n        revokeVoters[msg.sender] == true;\r\n\r\n        // Log lender vote for revoking the credit contract.\r\n        emit LogLenderVoteForRevoking(msg.sender, block.timestamp);\r\n\r\n        // If the consensus is reached.\r\n        if (lendersCount == revokeVotes) {\r\n            // Call internal revoke function.\r\n            revoke();\r\n        }\r\n    }\r\n\r\n    /** @dev Revoke internal function.\r\n     */\r\n    function revoke() internal {\r\n        // Change the state to revoked.\r\n        state = State.revoked;\r\n\r\n        // Log credit revoked.\r\n        emit LogCreditStateChanged(state, block.timestamp);\r\n    }\r\n\r\n    /** @dev Function for refunding people. */\r\n    function refund() public isActive onlyLender isRevoked {\r\n        // assert the contract have enough balance.\r\n        assert(address(this).balance >= lendersInvestedAmount[msg.sender]);\r\n\r\n        // Transfer the return amount with interest to the lender.\r\n        msg.sender.transfer(lendersInvestedAmount[msg.sender]);\r\n\r\n        // Log the transfer to lender.\r\n        emit LogLenderRefunded(\r\n            msg.sender,\r\n            lendersInvestedAmount[msg.sender],\r\n            block.timestamp\r\n        );\r\n\r\n        // Check if the contract balance is drawned.\r\n        if (address(this).balance == 0) {\r\n            // Set the active state to false.\r\n            active = false;\r\n\r\n            // Log active status change.\r\n            emit LogCreditStateActiveChanged(active, block.timestamp);\r\n\r\n            // Set the contract stage to expired e.g. its lifespan is over.\r\n            state = State.expired;\r\n\r\n            // Log state change.\r\n            emit LogCreditStateChanged(state, block.timestamp);\r\n        }\r\n    }\r\n\r\n    /** @dev Function for voting the borrower as fraudster.\r\n     */\r\n    // function fraudVote() public isActive onlyLender returns (bool) {\r\n    //     // A lender could vote only once.\r\n    //     require(fraudVoters[msg.sender] == false);\r\n\r\n    //     // Increment fraudVotes count.\r\n    //     fraudVotes++;\r\n\r\n    //     // Note the lender has voted.\r\n    //     fraudVoters[msg.sender] == true;\r\n\r\n    //     // Log lenders vote for fraud\r\n    //     emit LogLenderVoteForFraud(msg.sender, block.timestamp);\r\n\r\n    //     // Check if consensus is reached.\r\n    //     if (lendersCount == fraudVotes) {\r\n    //         // Invoke fraud function.\r\n    //         return fraud();\r\n    //     }\r\n    //     return true;\r\n    // }\r\n\r\n    // /** @dev Fraund function\r\n    //  * @return\r\n    //  * calls the owner contract and marks the borrower as fraudster.\r\n    //  */\r\n    // function fraud() internal returns (bool) {\r\n    //     // call the owner address function with param borrower's address\r\n    //     (bool fraudStatusResult, bytes memory data) = owner.call(abi.encodeWithSignature(\"setFraudStatus(address)\",borrower);\r\n\r\n    //     // Log user marked as fraud.\r\n    //      emit LogBorrowerIsFraud(borrower, fraudStatusResult, block.timestamp);\r\n\r\n    //     return fraudStatusResult;\r\n    // }\r\n\r\n    /** @dev Change state function.\r\n     * @param _state New state.\r\n     * Only accessible to the owner of the contract.\r\n     * Changes the state of the contract.\r\n     */\r\n    function changeState(State _state) external onlyOwner returns (uint) {\r\n        state = _state;\r\n\r\n        // Log state change.\r\n        emit LogCreditStateChanged(state, block.timestamp);\r\n    }\r\n\r\n    /** @dev Toggle active state function.\r\n     * Only accessible to the owner of the contract.\r\n     * Toggles the active state of the contract.\r\n     * @return bool\r\n     */\r\n    function toggleActive() external onlyOwner returns (bool) {\r\n        active = !active;\r\n\r\n        // Log active status change.\r\n        emit LogCreditStateActiveChanged(active, block.timestamp);\r\n\r\n        return active;\r\n    }\r\n}\r\n",
  "sourcePath": "C:\\Users\\rohit\\OneDrive\\Documents\\p2p-lending\\smart-contracts\\contracts\\Credit.sol",
  "compiler": {
    "name": "solc",
    "version": "0.5.16+commit.9c3226ce.Emscripten.clang"
  },
  "schemaVersion": "3.4.12",
  "updatedAt": "2023-02-28T18:32:54.093Z",
  "devdoc": {
    "methods": {
      "changeState(uint8)": {
        "details": "Change state function.",
        "params": {
          "_state": "New state. Only accessible to the owner of the contract. Changes the state of the contract."
        }
      },
      "constructor": {
        "details": "Constructor.",
        "params": {
          "_description": "Credit description.",
          "_requestedAmount": "Requested credit amount (in wei).",
          "_requestedRepayments": "Requested number of repayments."
        }
      },
      "getBalance()": {
        "details": "Get current balance.",
        "return": "this.balance."
      },
      "getCreditInfo()": {
        "details": "Function to get the whole credit information.",
        "return": "borrowerdescriptionrequestedAmountrequestedRepaymentsremainingRepaymentsinterestreturnAmountstateactivethis.balance"
      },
      "invest()": {
        "details": "Invest function. Provides functionality for person to invest in someone's credit, incentivised by the return of interest."
      },
      "refund()": {
        "details": "Function for refunding people. "
      },
      "repay()": {
        "details": "Repayment function. Allows borrower to make repayment installments."
      },
      "requestInterest()": {
        "details": "Request interest function. It can only be executed while contract is in active state. It is only accessible to lenders. It is only accessible if lender funded 1 or more wei. It can only be executed once. Transfers the lended amount + interest to the lender."
      },
      "revokeVote()": {
        "details": "Function for revoking the credit."
      },
      "toggleActive()": {
        "details": "Toggle active state function. Only accessible to the owner of the contract. Toggles the active state of the contract.",
        "return": "bool"
      },
      "withdraw()": {
        "details": "Withdraw function. It can only be executed while contract is in active state. It is only accessible to the borrower. It is only accessible if the needed amount is gathered in the contract. It can only be executed once. Transfers the gathered amount to the borrower."
      }
    },
    "title": "Credit contract. Inherits the Ownable and Destructible contracts."
  },
  "userdoc": {
    "methods": {}
  }
}