{
  "contractName": "Destructible",
  "abi": [
    {
      "inputs": [],
      "payable": true,
      "stateMutability": "payable",
      "type": "constructor"
    },
    {
      "anonymous": false,
      "inputs": [
        {
          "indexed": true,
          "internalType": "address",
          "name": "_currentOwner",
          "type": "address"
        },
        {
          "indexed": true,
          "internalType": "address",
          "name": "_newOwner",
          "type": "address"
        }
      ],
      "name": "LogOwnershipTransfered",
      "type": "event"
    },
    {
      "constant": false,
      "inputs": [],
      "name": "destroy",
      "outputs": [],
      "payable": false,
      "stateMutability": "nonpayable",
      "type": "function"
    },
    {
      "constant": false,
      "inputs": [
        {
          "internalType": "address payable",
          "name": "_recipient",
          "type": "address"
        }
      ],
      "name": "destroyAndSend",
      "outputs": [],
      "payable": false,
      "stateMutability": "nonpayable",
      "type": "function"
    }
  ],
  "bytecode": "0x6080604052336000806101000a81548173ffffffffffffffffffffffffffffffffffffffff021916908373ffffffffffffffffffffffffffffffffffffffff1602179055506101c3806100536000396000f3fe608060405234801561001057600080fd5b50600436106100365760003560e01c806383197ef01461003b578063f5074f4114610045575b600080fd5b610043610089565b005b6100876004803603602081101561005b57600080fd5b81019080803573ffffffffffffffffffffffffffffffffffffffff16906020019092919050505061011c565b005b6000809054906101000a900473ffffffffffffffffffffffffffffffffffffffff1673ffffffffffffffffffffffffffffffffffffffff163373ffffffffffffffffffffffffffffffffffffffff16146100e257600080fd5b6000809054906101000a900473ffffffffffffffffffffffffffffffffffffffff1673ffffffffffffffffffffffffffffffffffffffff16ff5b6000809054906101000a900473ffffffffffffffffffffffffffffffffffffffff1673ffffffffffffffffffffffffffffffffffffffff163373ffffffffffffffffffffffffffffffffffffffff161461017557600080fd5b8073ffffffffffffffffffffffffffffffffffffffff16fffea265627a7a72315820f9b1acb87704389c345c5d8560612760f76ad7b7a3722c673d79dc2d1d57922f64736f6c63430005100032",
  "source": "pragma solidity ^0.5.16;\r\n\r\nimport \"./Ownable.sol\";\r\n\r\ncontract Destructible is Ownable {\r\n    constructor() public payable {}\r\n\r\n    function destroy() public onlyOwner {\r\n        selfdestruct(owner);\r\n    }\r\n\r\n    function destroyAndSend(address payable _recipient) public onlyOwner {\r\n        selfdestruct(_recipient);\r\n    }\r\n}\r\n",
  "sourcePath": "C:\\Users\\rohit\\OneDrive\\Documents\\p2p-lending\\smart-contracts\\contracts\\common\\Destructible.sol",
  "compiler": {
    "name": "solc",
    "version": "0.5.16+commit.9c3226ce.Emscripten.clang"
  },
  "schemaVersion": "3.4.12",
  "updatedAt": "2023-02-28T18:32:54.108Z",
  "devdoc": {
    "methods": {}
  },
  "userdoc": {
    "methods": {}
  }
}