{
  "contractName": "PeerToPeerLending",
  "abi": [
    {
      "inputs": [],
      "payable": false,
      "stateMutability": "nonpayable",
      "type": "constructor"
    },
    {
      "anonymous": false,
      "inputs": [
        {
          "indexed": true,
          "internalType": "address",
          "name": "_address",
          "type": "address"
        },
        {
          "indexed": true,
          "internalType": "bool",
          "name": "active",
          "type": "bool"
        },
        {
          "indexed": true,
          "internalType": "uint256",
          "name": "timestamp",
          "type": "uint256"
        }
      ],
      "name": "LogCreditActiveChanged",
      "type": "event"
    },
    {
      "anonymous": false,
      "inputs": [
        {
          "indexed": true,
          "internalType": "address",
          "name": "_address",
          "type": "address"
        },
        {
          "indexed": true,
          "internalType": "address",
          "name": "_borrower",
          "type": "address"
        },
        {
          "indexed": true,
          "internalType": "uint256",
          "name": "timestamp",
          "type": "uint256"
        }
      ],
      "name": "LogCreditCreated",
      "type": "event"
    },
    {
      "anonymous": false,
      "inputs": [
        {
          "indexed": true,
          "internalType": "address",
          "name": "_address",
          "type": "address"
        },
        {
          "indexed": true,
          "internalType": "enum Credit.State",
          "name": "state",
          "type": "uint8"
        },
        {
          "indexed": true,
          "internalType": "uint256",
          "name": "timestamp",
          "type": "uint256"
        }
      ],
      "name": "LogCreditStateChanged",
      "type": "event"
    },
    {
      "anonymous": false,
      "inputs": [
        {
          "indexed": true,
          "internalType": "address",
          "name": "_currentOwner",
          "type": "address"
        },
        {
          "indexed": true,
          "internalType": "address",
          "name": "_newOwner",
          "type": "address"
        }
      ],
      "name": "LogOwnershipTransfered",
      "type": "event"
    },
    {
      "anonymous": false,
      "inputs": [
        {
          "indexed": true,
          "internalType": "address",
          "name": "_address",
          "type": "address"
        },
        {
          "indexed": false,
          "internalType": "bool",
          "name": "fraudStatus",
          "type": "bool"
        },
        {
          "indexed": false,
          "internalType": "uint256",
          "name": "timestamp",
          "type": "uint256"
        }
      ],
      "name": "LogUserSetFraud",
      "type": "event"
    },
    {
      "constant": true,
      "inputs": [
        {
          "internalType": "uint256",
          "name": "",
          "type": "uint256"
        }
      ],
      "name": "credits",
      "outputs": [
        {
          "internalType": "address",
          "name": "",
          "type": "address"
        }
      ],
      "payable": false,
      "stateMutability": "view",
      "type": "function"
    },
    {
      "constant": false,
      "inputs": [],
      "name": "destroy",
      "outputs": [],
      "payable": false,
      "stateMutability": "nonpayable",
      "type": "function"
    },
    {
      "constant": false,
      "inputs": [
        {
          "internalType": "address payable",
          "name": "_recipient",
          "type": "address"
        }
      ],
      "name": "destroyAndSend",
      "outputs": [],
      "payable": false,
      "stateMutability": "nonpayable",
      "type": "function"
    },
    {
      "constant": true,
      "inputs": [
        {
          "internalType": "address",
          "name": "",
          "type": "address"
        }
      ],
      "name": "users",
      "outputs": [
        {
          "internalType": "bool",
          "name": "credited",
          "type": "bool"
        },
        {
          "internalType": "address",
          "name": "activeCredit",
          "type": "address"
        },
        {
          "internalType": "bool",
          "name": "fraudStatus",
          "type": "bool"
        }
      ],
      "payable": false,
      "stateMutability": "view",
      "type": "function"
    },
    {
      "constant": false,
      "inputs": [
        {
          "internalType": "uint256",
          "name": "requestedAmount",
          "type": "uint256"
        },
        {
          "internalType": "uint256",
          "name": "repaymentsCount",
          "type": "uint256"
        },
        {
          "internalType": "uint256",
          "name": "interest",
          "type": "uint256"
        },
        {
          "internalType": "bytes32",
          "name": "creditDescription",
          "type": "bytes32"
        }
      ],
      "name": "applyForCredit",
      "outputs": [
        {
          "internalType": "address",
          "name": "_credit",
          "type": "address"
        }
      ],
      "payable": false,
      "stateMutability": "nonpayable",
      "type": "function"
    },
    {
      "constant": true,
      "inputs": [],
      "name": "getCredits",
      "outputs": [
        {
          "internalType": "address[]",
          "name": "",
          "type": "address[]"
        }
      ],
      "payable": false,
      "stateMutability": "view",
      "type": "function"
    },
    {
      "constant": true,
      "inputs": [],
      "name": "getUserCredits",
      "outputs": [
        {
          "internalType": "address[]",
          "name": "",
          "type": "address[]"
        }
      ],
      "payable": false,
      "stateMutability": "view",
      "type": "function"
    },
    {
      "constant": false,
      "inputs": [
        {
          "internalType": "address",
          "name": "_borrower",
          "type": "address"
        }
      ],
      "name": "setFraudStatus",
      "outputs": [
        {
          "internalType": "bool",
          "name": "",
          "type": "bool"
        }
      ],
      "payable": false,
      "stateMutability": "nonpayable",
      "type": "function"
    },
    {
      "constant": false,
      "inputs": [
        {
          "internalType": "contract Credit",
          "name": "_credit",
          "type": "address"
        }
      ],
      "name": "changeCreditState",
      "outputs": [],
      "payable": false,
      "stateMutability": "nonpayable",
      "type": "function"
    },
    {
      "constant": false,
      "inputs": [
        {
          "internalType": "contract Credit",
          "name": "_credit",
          "type": "address"
        },
        {
          "internalType": "enum Credit.State",
          "name": "state",
          "type": "uint8"
        }
      ],
      "name": "changeCreditState",
      "outputs": [],
      "payable": false,
      "stateMutability": "nonpayable",
      "type": "function"
    }
  ],
  "bytecode": "0x608060405234801561001057600080fd5b50336000806101000a81548173ffffffffffffffffffffffffffffffffffffffff021916908373ffffffffffffffffffffffffffffffffffffffff160217905550612813806100606000396000f3fe608060405234801561001057600080fd5b506004361061009e5760003560e01c8063a87430ba11610066578063a87430ba1461021d578063bb9e4247146102b7578063ebb5d8ed14610313578063f5074f411461039f578063fa838e54146103e35761009e565b8063036a1c22146100a35780632092cb331461011157806359658c4814610170578063823a71af146101b457806383197ef014610213575b600080fd5b6100cf600480360360208110156100b957600080fd5b8101908080359060200190929190505050610434565b604051808273ffffffffffffffffffffffffffffffffffffffff1673ffffffffffffffffffffffffffffffffffffffff16815260200191505060405180910390f35b610119610470565b6040518080602001828103825283818151815260200191508051906020019060200280838360005b8381101561015c578082015181840152602081019050610141565b505050509050019250505060405180910390f35b6101b26004803603602081101561018657600080fd5b81019080803573ffffffffffffffffffffffffffffffffffffffff16906020019092919050505061053e565b005b6101bc61066f565b6040518080602001828103825283818151815260200191508051906020019060200280838360005b838110156101ff5780820151818401526020810190506101e4565b505050509050019250505060405180910390f35b61021b6106fd565b005b61025f6004803603602081101561023357600080fd5b81019080803573ffffffffffffffffffffffffffffffffffffffff169060200190929190505050610790565b60405180841515151581526020018373ffffffffffffffffffffffffffffffffffffffff1673ffffffffffffffffffffffffffffffffffffffff16815260200182151515158152602001935050505060405180910390f35b6102f9600480360360208110156102cd57600080fd5b81019080803573ffffffffffffffffffffffffffffffffffffffff1690602001909291905050506107f4565b604051808215151515815260200191505060405180910390f35b61035d6004803603608081101561032957600080fd5b8101908080359060200190929190803590602001909291908035906020019092919080359060200190929190505050610950565b604051808273ffffffffffffffffffffffffffffffffffffffff1673ffffffffffffffffffffffffffffffffffffffff16815260200191505060405180910390f35b6103e1600480360360208110156103b557600080fd5b81019080803573ffffffffffffffffffffffffffffffffffffffff169060200190929190505050610d47565b005b610432600480360360408110156103f957600080fd5b81019080803573ffffffffffffffffffffffffffffffffffffffff169060200190929190803560ff169060200190929190505050610db9565b005b6002818154811061044157fe5b906000526020600020016000915054906101000a900473ffffffffffffffffffffffffffffffffffffffff1681565b6060600160003373ffffffffffffffffffffffffffffffffffffffff1673ffffffffffffffffffffffffffffffffffffffff16815260200190815260200160002060010180548060200260200160405190810160405280929190818152602001828054801561053457602002820191906000526020600020905b8160009054906101000a900473ffffffffffffffffffffffffffffffffffffffff1673ffffffffffffffffffffffffffffffffffffffff16815260200190600101908083116104ea575b5050505050905090565b6000809054906101000a900473ffffffffffffffffffffffffffffffffffffffff1673ffffffffffffffffffffffffffffffffffffffff163373ffffffffffffffffffffffffffffffffffffffff161461059757600080fd5b600081905060008173ffffffffffffffffffffffffffffffffffffffff166329c68dc16040518163ffffffff1660e01b8152600401602060405180830381600087803b1580156105e657600080fd5b505af11580156105fa573d6000803e3d6000fd5b505050506040513d602081101561061057600080fd5b81019080805190602001909291905050509050428115158373ffffffffffffffffffffffffffffffffffffffff167f25270acf0eab637903a9cd906e32d2ac17ce44db6c743ba5812f2924e84ff8d660405160405180910390a4505050565b606060028054806020026020016040519081016040528092919081815260200182805480156106f357602002820191906000526020600020905b8160009054906101000a900473ffffffffffffffffffffffffffffffffffffffff1673ffffffffffffffffffffffffffffffffffffffff16815260200190600101908083116106a9575b5050505050905090565b6000809054906101000a900473ffffffffffffffffffffffffffffffffffffffff1673ffffffffffffffffffffffffffffffffffffffff163373ffffffffffffffffffffffffffffffffffffffff161461075657600080fd5b6000809054906101000a900473ffffffffffffffffffffffffffffffffffffffff1673ffffffffffffffffffffffffffffffffffffffff16ff5b60016020528060005260406000206000915090508060000160009054906101000a900460ff16908060000160019054906101000a900473ffffffffffffffffffffffffffffffffffffffff16908060000160159054906101000a900460ff16905083565b600060018060008473ffffffffffffffffffffffffffffffffffffffff1673ffffffffffffffffffffffffffffffffffffffff16815260200190815260200160002060000160156101000a81548160ff0219169083151502179055508173ffffffffffffffffffffffffffffffffffffffff167fbafb199a9909a7be73ceeaf6193dc9ea119ef469120d998d5f550140c0b13b54600160008573ffffffffffffffffffffffffffffffffffffffff1673ffffffffffffffffffffffffffffffffffffffff16815260200190815260200160002060000160159054906101000a900460ff164260405180831515151581526020018281526020019250505060405180910390a2600160008373ffffffffffffffffffffffffffffffffffffffff1673ffffffffffffffffffffffffffffffffffffffff16815260200190815260200160002060000160159054906101000a900460ff169050919050565b6000801515600160003373ffffffffffffffffffffffffffffffffffffffff1673ffffffffffffffffffffffffffffffffffffffff16815260200190815260200160002060000160009054906101000a900460ff161515146109b157600080fd5b60001515600160003373ffffffffffffffffffffffffffffffffffffffff1673ffffffffffffffffffffffffffffffffffffffff16815260200190815260200160002060000160159054906101000a900460ff16151514610a1157600080fd5b600073ffffffffffffffffffffffffffffffffffffffff16600160003373ffffffffffffffffffffffffffffffffffffffff1673ffffffffffffffffffffffffffffffffffffffff16815260200190815260200160002060000160019054906101000a900473ffffffffffffffffffffffffffffffffffffffff1673ffffffffffffffffffffffffffffffffffffffff1614610aa957fe5b60018060003373ffffffffffffffffffffffffffffffffffffffff1673ffffffffffffffffffffffffffffffffffffffff16815260200190815260200160002060000160006101000a81548160ff021916908315150217905550600085858585604051610b1590610f09565b80858152602001848152602001838152602001828152602001945050505050604051809103906000f080158015610b50573d6000803e3d6000fd5b50905080600160003373ffffffffffffffffffffffffffffffffffffffff1673ffffffffffffffffffffffffffffffffffffffff16815260200190815260200160002060000160016101000a81548173ffffffffffffffffffffffffffffffffffffffff021916908373ffffffffffffffffffffffffffffffffffffffff16021790555060028190806001815401808255809150509060018203906000526020600020016000909192909190916101000a81548173ffffffffffffffffffffffffffffffffffffffff021916908373ffffffffffffffffffffffffffffffffffffffff16021790555050600160003373ffffffffffffffffffffffffffffffffffffffff1673ffffffffffffffffffffffffffffffffffffffff1681526020019081526020016000206001018190806001815401808255809150509060018203906000526020600020016000909192909190916101000a81548173ffffffffffffffffffffffffffffffffffffffff021916908373ffffffffffffffffffffffffffffffffffffffff16021790555050423373ffffffffffffffffffffffffffffffffffffffff168273ffffffffffffffffffffffffffffffffffffffff167fa0c75b76492543c8eafdc7e35272287bd6f229dcf0f6c22429343044718c510860405160405180910390a480915050949350505050565b6000809054906101000a900473ffffffffffffffffffffffffffffffffffffffff1673ffffffffffffffffffffffffffffffffffffffff163373ffffffffffffffffffffffffffffffffffffffff1614610da057600080fd5b8073ffffffffffffffffffffffffffffffffffffffff16ff5b6000809054906101000a900473ffffffffffffffffffffffffffffffffffffffff1673ffffffffffffffffffffffffffffffffffffffff163373ffffffffffffffffffffffffffffffffffffffff1614610e1257600080fd5b60008290508073ffffffffffffffffffffffffffffffffffffffff1663268f1153836040518263ffffffff1660e01b815260040180826005811115610e5357fe5b60ff168152602001915050602060405180830381600087803b158015610e7857600080fd5b505af1158015610e8c573d6000803e3d6000fd5b505050506040513d6020811015610ea257600080fd5b81019080805190602001909291905050505042826005811115610ec157fe5b8273ffffffffffffffffffffffffffffffffffffffff167f9ae5127f6d87e374b5901ce23a9467e504811c54c03dda8741ad44a35a36146660405160405180910390a4505050565b6118c880610f178339019056fe60806040526001600c60006101000a81548160ff0219169083151502179055506000600f5560006010556001420160125560006013553480156200004257600080fd5b50604051620018c8380380620018c8833981810160405260808110156200006857600080fd5b8101908080519060200190929190805190602001909291908051906020019092919080519060200190929190505050336000806101000a81548173ffffffffffffffffffffffffffffffffffffffff021916908373ffffffffffffffffffffffffffffffffffffffff16021790555032600160006101000a81548173ffffffffffffffffffffffffffffffffffffffff021916908373ffffffffffffffffffffffffffffffffffffffff1602179055508160058190555083600281905550826006819055508260078190555062000152600554600254620001fa60201b620015af1790919060201c565b600381905550620001766006546003546200021760201b620016391790919060201c565b60088190555080600b819055504260098190555042600160009054906101000a900473ffffffffffffffffffffffffffffffffffffffff1673ffffffffffffffffffffffffffffffffffffffff167ff9f75c99c0e3522cd19ffc66fd6c94989a3f0821d37d5c5bb176aab904c6335d60405160405180910390a35050505062000231565b6000808284019050838110156200020d57fe5b8091505092915050565b6000808284816200022457fe5b0490508091505092915050565b61168780620002416000396000f3fe6080604052600436106100c25760003560e01c806343c14b221161007f578063e8b5e51f11610059578063e8b5e51f14610242578063efd475ab1461024c578063f06817cf14610263578063f5074f4114610312576100c2565b806343c14b22146101fd578063590e1ae31461021457806383197ef01461022b576100c2565b806312065fe0146100c7578063268f1153146100f257806328fd10d71461014457806329c68dc1146101ad5780633ccfd60b146101dc578063402d8883146101f3575b600080fd5b3480156100d357600080fd5b506100dc610363565b6040518082815260200191505060405180910390f35b3480156100fe57600080fd5b5061012e6004803603602081101561011557600080fd5b81019080803560ff16906020019092919050505061036b565b6040518082815260200191505060405180910390f35b34801561015057600080fd5b506101936004803603602081101561016757600080fd5b81019080803573ffffffffffffffffffffffffffffffffffffffff169060200190929190505050610436565b604051808215151515815260200191505060405180910390f35b3480156101b957600080fd5b506101c2610456565b604051808215151515815260200191505060405180910390f35b3480156101e857600080fd5b506101f161052f565b005b6101fb610706565b005b34801561020957600080fd5b506102126109f5565b005b34801561022057600080fd5b50610229610bcd565b005b34801561023757600080fd5b50610240610ea1565b005b61024a610f34565b005b34801561025857600080fd5b50610261611220565b005b34801561026f57600080fd5b50610278611496565b604051808c73ffffffffffffffffffffffffffffffffffffffff1673ffffffffffffffffffffffffffffffffffffffff1681526020018b81526020018a81526020018981526020018881526020018781526020018681526020018581526020018460058111156102e457fe5b60ff168152602001831515151581526020018281526020019b50505050505050505050505060405180910390f35b34801561031e57600080fd5b506103616004803603602081101561033557600080fd5b81019080803573ffffffffffffffffffffffffffffffffffffffff169060200190929190505050611526565b005b600047905090565b60008060009054906101000a900473ffffffffffffffffffffffffffffffffffffffff1673ffffffffffffffffffffffffffffffffffffffff163373ffffffffffffffffffffffffffffffffffffffff16146103c657600080fd5b81600c60016101000a81548160ff021916908360058111156103e457fe5b021790555042600c60019054906101000a900460ff16600581111561040557fe5b7faaae373901e745122c2e0925ad006227969c6cd190b7d5ea2fb7fdbd1d955b3560405160405180910390a3919050565b600d6020528060005260406000206000915054906101000a900460ff1681565b60008060009054906101000a900473ffffffffffffffffffffffffffffffffffffffff1673ffffffffffffffffffffffffffffffffffffffff163373ffffffffffffffffffffffffffffffffffffffff16146104b157600080fd5b600c60009054906101000a900460ff1615600c60006101000a81548160ff02191690831515021790555042600c60009054906101000a900460ff1615157f160914ea27c60aa29a5f3a69d74e6069869de36e38939de1e0a66b921d8623d260405160405180910390a3600c60009054906101000a900460ff16905090565b60011515600c60009054906101000a900460ff1615151461054f57600080fd5b600160009054906101000a900473ffffffffffffffffffffffffffffffffffffffff1673ffffffffffffffffffffffffffffffffffffffff163373ffffffffffffffffffffffffffffffffffffffff16146105a957600080fd5b6002544710156105b857600080fd5b6005808111156105c457fe5b600c60019054906101000a900460ff1660058111156105df57fe5b14156105ea57600080fd5b6001600c60016101000a81548160ff0219169083600581111561060957fe5b021790555042600c60019054906101000a900460ff16600581111561062a57fe5b7faaae373901e745122c2e0925ad006227969c6cd190b7d5ea2fb7fdbd1d955b3560405160405180910390a342473373ffffffffffffffffffffffffffffffffffffffff167f20734f14d107b526674905e470e35d0a474f9fb996a7bdb034c839c8894524e660405160405180910390a4600160009054906101000a900473ffffffffffffffffffffffffffffffffffffffff1673ffffffffffffffffffffffffffffffffffffffff166108fc479081150290604051600060405180830381858888f19350505050158015610703573d6000803e3d6000fd5b50565b600160009054906101000a900473ffffffffffffffffffffffffffffffffffffffff1673ffffffffffffffffffffffffffffffffffffffff163373ffffffffffffffffffffffffffffffffffffffff161461076057600080fd5b6001600581111561076d57fe5b600c60019054906101000a900460ff16600581111561078857fe5b1461079257600080fd5b6000600754116107a157600080fd5b6008543410156107b057600080fd5b600354600454106107bd57fe5b6007600081548092919060019003919050555042600a8190555060008090506008543411156108b1576107fb6008543461159890919063ffffffff16565b9050610810813461159890919063ffffffff16565b6008541461081a57fe5b3481111561082457fe5b3373ffffffffffffffffffffffffffffffffffffffff166108fc829081150290604051600060405180830381858888f1935050505015801561086a573d6000803e3d6000fd5b5042813373ffffffffffffffffffffffffffffffffffffffff167f5c9874487a2258c6bd6dc39a2cfcf7ea944b50b79d9a7152668779687b2ebd8d60405160405180910390a45b426108c5823461159890919063ffffffff16565b3373ffffffffffffffffffffffffffffffffffffffff167f350a09487d622378c6efbda255f996387696319f803a2e53eee64f7aa70be85a60405160405180910390a461092f61091e823461159890919063ffffffff16565b6004546115af90919063ffffffff16565b60048190555060035460045414156109f257423373ffffffffffffffffffffffffffffffffffffffff167f25630de45a38a90cbca3a2eb35a8197e51b56d6d912581711e5e3773fe77cabc60405160405180910390a36002600c60016101000a81548160ff021916908360058111156109a457fe5b021790555042600c60019054906101000a900460ff1660058111156109c557fe5b7faaae373901e745122c2e0925ad006227969c6cd190b7d5ea2fb7fdbd1d955b3560405160405180910390a35b50565b60011515600c60009054906101000a900460ff16151514610a1557600080fd5b601254421015610a2457600080fd5b60006005811115610a3157fe5b600c60019054906101000a900460ff166005811115610a4c57fe5b14610a5657600080fd5b60011515600d60003373ffffffffffffffffffffffffffffffffffffffff1673ffffffffffffffffffffffffffffffffffffffff16815260200190815260200160002060009054906101000a900460ff16151514610ab357600080fd5b60001515601160003373ffffffffffffffffffffffffffffffffffffffff1673ffffffffffffffffffffffffffffffffffffffff16815260200190815260200160002060009054906101000a900460ff16151514610b1057600080fd5b60106000815480929190600101919050555060011515601160003373ffffffffffffffffffffffffffffffffffffffff1673ffffffffffffffffffffffffffffffffffffffff16815260200190815260200160002060009054906101000a90505050423373ffffffffffffffffffffffffffffffffffffffff167fd7173ce7e4ce6f6d075259ac1a467ab8290db175a2cee8587a663c006b97e12960405160405180910390a3601054600f541415610bcb57610bca6115cb565b5b565b60011515600c60009054906101000a900460ff16151514610bed57600080fd5b60011515600d60003373ffffffffffffffffffffffffffffffffffffffff1673ffffffffffffffffffffffffffffffffffffffff16815260200190815260200160002060009054906101000a900460ff16151514610c4a57600080fd5b60046005811115610c5757fe5b600c60019054906101000a900460ff166005811115610c7257fe5b14610c7c57600080fd5b600e60003373ffffffffffffffffffffffffffffffffffffffff1673ffffffffffffffffffffffffffffffffffffffff16815260200190815260200160002054471015610cc557fe5b3373ffffffffffffffffffffffffffffffffffffffff166108fc600e60003373ffffffffffffffffffffffffffffffffffffffff1673ffffffffffffffffffffffffffffffffffffffff168152602001908152602001600020549081150290604051600060405180830381858888f19350505050158015610d4a573d6000803e3d6000fd5b5042600e60003373ffffffffffffffffffffffffffffffffffffffff1673ffffffffffffffffffffffffffffffffffffffff168152602001908152602001600020543373ffffffffffffffffffffffffffffffffffffffff167f71e252e33f19f0223f47f27d00910548d26488b9b55cb5b410b75e273152f8d660405160405180910390a46000471415610e9f576000600c60006101000a81548160ff02191690831515021790555042600c60009054906101000a900460ff1615157f160914ea27c60aa29a5f3a69d74e6069869de36e38939de1e0a66b921d8623d260405160405180910390a36003600c60016101000a81548160ff02191690836005811115610e5157fe5b021790555042600c60019054906101000a900460ff166005811115610e7257fe5b7faaae373901e745122c2e0925ad006227969c6cd190b7d5ea2fb7fdbd1d955b3560405160405180910390a35b565b6000809054906101000a900473ffffffffffffffffffffffffffffffffffffffff1673ffffffffffffffffffffffffffffffffffffffff163373ffffffffffffffffffffffffffffffffffffffff1614610efa57600080fd5b6000809054906101000a900473ffffffffffffffffffffffffffffffffffffffff1673ffffffffffffffffffffffffffffffffffffffff16ff5b60006005811115610f4157fe5b600c60019054906101000a900460ff166005811115610f5c57fe5b14610f6657600080fd5b600080905060025447106110b557610f896002544761159890919063ffffffff16565b9050610f9e814761159890919063ffffffff16565b60025414610fa857fe5b34811115610fb257fe5b6000811115611048573373ffffffffffffffffffffffffffffffffffffffff166108fc829081150290604051600060405180830381858888f19350505050158015611001573d6000803e3d6000fd5b5042813373ffffffffffffffffffffffffffffffffffffffff167f566803f6e271b911c84f87631bcd310d6a6510bf8882577a96fc76975703e43160405160405180910390a45b6001600c60016101000a81548160ff0219169083600581111561106757fe5b021790555042600c60019054906101000a900460ff16600581111561108857fe5b7faaae373901e745122c2e0925ad006227969c6cd190b7d5ea2fb7fdbd1d955b3560405160405180910390a35b6001600d60003373ffffffffffffffffffffffffffffffffffffffff1673ffffffffffffffffffffffffffffffffffffffff16815260200190815260200160002060006101000a81548160ff021916908315150217905550600f60008154809291906001019190505550611183611135823461159890919063ffffffff16565b600e60003373ffffffffffffffffffffffffffffffffffffffff1673ffffffffffffffffffffffffffffffffffffffff168152602001908152602001600020546115af90919063ffffffff16565b600e60003373ffffffffffffffffffffffffffffffffffffffff1673ffffffffffffffffffffffffffffffffffffffff16815260200190815260200160002081905550426111da823461159890919063ffffffff16565b3373ffffffffffffffffffffffffffffffffffffffff167f1b0969ce7f5b05c5e0969329a05cdbd7e2e2f6cee33ba26fd6e6bbcff82312cd60405160405180910390a450565b60011515600c60009054906101000a900460ff1615151461124057600080fd5b60011515600d60003373ffffffffffffffffffffffffffffffffffffffff1673ffffffffffffffffffffffffffffffffffffffff16815260200190815260200160002060009054906101000a900460ff1615151461129d57600080fd5b600260058111156112aa57fe5b600c60019054906101000a900460ff1660058111156112c557fe5b146112cf57600080fd5b6000600e60003373ffffffffffffffffffffffffffffffffffffffff1673ffffffffffffffffffffffffffffffffffffffff168152602001908152602001600020541161131b57600080fd5b6000600f546003548161132a57fe5b0490508047101561133757fe5b3373ffffffffffffffffffffffffffffffffffffffff166108fc829081150290604051600060405180830381858888f1935050505015801561137d573d6000803e3d6000fd5b5042813373ffffffffffffffffffffffffffffffffffffffff167f052f6685df2f773f854b17db1d82e2352e222010daaf8175761f02ef8782c40360405160405180910390a46000471415611493576000600c60006101000a81548160ff02191690831515021790555042600c60009054906101000a900460ff1615157f160914ea27c60aa29a5f3a69d74e6069869de36e38939de1e0a66b921d8623d260405160405180910390a36003600c60016101000a81548160ff0219169083600581111561144557fe5b021790555042600c60019054906101000a900460ff16600581111561146657fe5b7faaae373901e745122c2e0925ad006227969c6cd190b7d5ea2fb7fdbd1d955b3560405160405180910390a35b50565b6000806000806000806000806000806000600160009054906101000a900473ffffffffffffffffffffffffffffffffffffffff16600b54600254600654600854600754600554600354600c60019054906101000a900460ff16600c60009054906101000a900460ff16478a9a509a509a509a509a509a509a509a509a509a509a509a50909192939495969798999a565b6000809054906101000a900473ffffffffffffffffffffffffffffffffffffffff1673ffffffffffffffffffffffffffffffffffffffff163373ffffffffffffffffffffffffffffffffffffffff161461157f57600080fd5b8073ffffffffffffffffffffffffffffffffffffffff16ff5b6000828211156115a457fe5b818303905092915050565b6000808284019050838110156115c157fe5b8091505092915050565b6004600c60016101000a81548160ff021916908360058111156115ea57fe5b021790555042600c60019054906101000a900460ff16600581111561160b57fe5b7faaae373901e745122c2e0925ad006227969c6cd190b7d5ea2fb7fdbd1d955b3560405160405180910390a3565b60008082848161164557fe5b049050809150509291505056fea265627a7a7231582040819c3a08df95feace020f2eaeae2385fc6a7b610b013ee704078385c2a10e564736f6c63430005100032a265627a7a7231582028ae70dc9177d1f11b9a834c85630b86db013cd569606329adcc7898a617f46a64736f6c63430005100032",
  "source": "pragma solidity ^0.5.16;\r\n\r\nimport \"./common/SafeMath.sol\";\r\nimport \"./common/Destructible.sol\";\r\nimport \"./Credit.sol\";\r\n\r\n/** @title Peer to peer lending contract.\r\n * Inherits the Ownable and Destructible contracts.\r\n */\r\ncontract PeerToPeerLending is Destructible {\r\n    /** @dev Usings */\r\n    // Using SafeMath for our calculations with uints.\r\n    using SafeMath for uint;\r\n\r\n    /** @dev State variables */\r\n\r\n    // User structure\r\n    struct User {\r\n        // Is the user currently credited.\r\n        bool credited;\r\n        // The adress of the active credit.\r\n        address activeCredit;\r\n        // Is the user marked as fraudlent.\r\n        bool fraudStatus;\r\n        // All user credits.\r\n        address[] allCredits;\r\n    }\r\n\r\n    // We store all users in a mapping.\r\n    mapping(address => User) public users;\r\n\r\n    // Array of all credits adresses.\r\n    address[] public credits;\r\n\r\n    /** @dev Events */\r\n    event LogCreditCreated(\r\n        address indexed _address,\r\n        address indexed _borrower,\r\n        uint indexed timestamp\r\n    );\r\n    event LogCreditStateChanged(\r\n        address indexed _address,\r\n        Credit.State indexed state,\r\n        uint indexed timestamp\r\n    );\r\n    event LogCreditActiveChanged(\r\n        address indexed _address,\r\n        bool indexed active,\r\n        uint indexed timestamp\r\n    );\r\n    event LogUserSetFraud(\r\n        address indexed _address,\r\n        bool fraudStatus,\r\n        uint timestamp\r\n    );\r\n\r\n    /** @dev Constructor */\r\n    constructor() public {}\r\n\r\n    /** @dev Credit application function.\r\n     * @param requestedAmount Requested funding amount in wei.\r\n     * @param repaymentsCount Requested repayments count.\r\n     * @param creditDescription The description of the funding.\r\n     * @return credit Return credit address.\r\n     * The function publishesh another contract which is the credit contract.\r\n     * The owner of the new contract is the present contract.\r\n     */\r\n    function applyForCredit(\r\n        uint requestedAmount,\r\n        uint repaymentsCount,\r\n        uint interest,\r\n        bytes32 creditDescription\r\n    ) public returns (address _credit) {\r\n        // The user should not have been credited;\r\n        require(users[msg.sender].credited == false);\r\n\r\n        // THe user should not be marked as fraudlent.\r\n        require(users[msg.sender].fraudStatus == false);\r\n\r\n        // Assert there is no active credit for the user.\r\n        assert(users[msg.sender].activeCredit == address(0));\r\n\r\n        // Mark the user as credited. Prevent from reentrancy.\r\n        users[msg.sender].credited = true;\r\n\r\n        // Create a new credit contract with the given parameters.\r\n        Credit credit = new Credit(\r\n            requestedAmount,\r\n            repaymentsCount,\r\n            interest,\r\n            creditDescription\r\n        );\r\n\r\n        // Set the user's active credit contract.\r\n        users[msg.sender].activeCredit = address(credit);\r\n\r\n        // Add the credit contract to our list with contracts.\r\n        credits.push(address(credit));\r\n\r\n        // Add the credit to the user's profile.\r\n        users[msg.sender].allCredits.push(address(credit));\r\n\r\n        // Log the credit creation event.\r\n        emit LogCreditCreated(address(credit), msg.sender, block.timestamp);\r\n\r\n        // Return the address of the newly created credit contract.\r\n        return address(credit);\r\n    }\r\n\r\n    /** @dev Get the list with all credits.\r\n     * @return credits Returns list of credit addresses.\r\n     */\r\n    function getCredits() public view returns (address[] memory) {\r\n        return credits;\r\n    }\r\n\r\n    /** @dev Get all users credits.\r\n     * @return users[msg.sender].allCredits Return user credits.\r\n     */\r\n    function getUserCredits() public view returns (address[] memory) {\r\n        return users[msg.sender].allCredits;\r\n    }\r\n\r\n    /** @dev Sets user fraudlent status true.\r\n     * @param _borrower The user's address.\r\n     * @return users[_borrower].fraudStatus Boolean of the new fraud status.\r\n     */\r\n    function setFraudStatus(address _borrower) external returns (bool) {\r\n        // Update user fraud status.\r\n        users[_borrower].fraudStatus = true;\r\n\r\n        // Log fraud status.\r\n        emit LogUserSetFraud(\r\n            _borrower,\r\n            users[_borrower].fraudStatus,\r\n            block.timestamp\r\n        );\r\n\r\n        return users[_borrower].fraudStatus;\r\n    }\r\n\r\n    /** @dev Function to switch active state of a credit.\r\n     * @param _credit The credit's address.\r\n     * @param state New state.\r\n     */\r\n    function changeCreditState(\r\n        Credit _credit,\r\n        Credit.State state\r\n    ) public onlyOwner {\r\n        // Call credit contract changeStage.\r\n        Credit credit = Credit(_credit);\r\n        credit.changeState(state);\r\n\r\n        // Log state change.\r\n        emit LogCreditStateChanged(address(credit), state, block.timestamp);\r\n    }\r\n\r\n    /** @dev Function to toggle active state of credit contract.\r\n     * @param _credit The credit's address.\r\n     */\r\n    function changeCreditState(Credit _credit) public onlyOwner {\r\n        // Call credit contract toggleActive method.\r\n        Credit credit = Credit(_credit);\r\n        bool active = credit.toggleActive();\r\n\r\n        // Log state change.\r\n        emit LogCreditActiveChanged(address(credit), active, block.timestamp);\r\n    }\r\n}\r\n",
  "sourcePath": "C:\\Users\\rohit\\OneDrive\\Documents\\p2p-lending\\smart-contracts\\contracts\\PeerToPeerLending.sol",
  "compiler": {
    "name": "solc",
    "version": "0.5.16+commit.9c3226ce.Emscripten.clang"
  },
  "schemaVersion": "3.4.12",
  "updatedAt": "2023-02-28T18:32:54.105Z",
  "devdoc": {
    "methods": {
      "applyForCredit(uint256,uint256,uint256,bytes32)": {
        "details": "Credit application function.",
        "params": {
          "creditDescription": "The description of the funding.",
          "repaymentsCount": "Requested repayments count.",
          "requestedAmount": "Requested funding amount in wei."
        },
        "return": "credit Return credit address. The function publishesh another contract which is the credit contract. The owner of the new contract is the present contract."
      },
      "changeCreditState(address)": {
        "details": "Function to toggle active state of credit contract.",
        "params": {
          "_credit": "The credit's address."
        }
      },
      "changeCreditState(address,uint8)": {
        "details": "Function to switch active state of a credit.",
        "params": {
          "_credit": "The credit's address.",
          "state": "New state."
        }
      },
      "constructor": {
        "details": "Constructor "
      },
      "getCredits()": {
        "details": "Get the list with all credits.",
        "return": "credits Returns list of credit addresses."
      },
      "getUserCredits()": {
        "details": "Get all users credits.",
        "return": "users[msg.sender].allCredits Return user credits."
      },
      "setFraudStatus(address)": {
        "details": "Sets user fraudlent status true.",
        "params": {
          "_borrower": "The user's address."
        },
        "return": "users[_borrower].fraudStatus Boolean of the new fraud status."
      }
    },
    "title": "Peer to peer lending contract. Inherits the Ownable and Destructible contracts."
  },
  "userdoc": {
    "methods": {}
  }
}